:100000008FC00000B4C00000B2C000000C94030C0C
:100010000C94030C0C94030CAAC0000033C600001F
:10002000A6C00000A4C00000A2C00000A0C0000044
:100030009EC000009CC000009AC0000098C0000054
:1000400087C6000094C0000088C20000B8C200004B
:100050008EC000008CC000008AC0000088C0000074
:1000600086C0000084C00000D710E310E710ED1038
:10007000F21006110F1115111A111F111F111F1166
:100080001F111F111F111F111F111F111F111F11F0
:100090001F111F111F111F111F111F111F111F11E0
:1000A0001F111F111F111F11D710DC10E310E710D3
:1000B000ED10F210F810FC10011102000000080011
:1000C000020100000304070000000000000000011E
:1000D00002040810204080010204081020010204DC
:1000E00008102004040404040404040202020202AE
:1000F000020303030303030000000023002600297A
:100100000000000000250028002B00000000002453
:100110000027002A00002B010D03190B1D1B4201B3
:1001200011241FBECFEFD8E0DEBFCDBF11E0A0E0AD
:10013000B1E0E2E2FCE302C005900D92AC3FB107F2
:10014000D9F726E0ACEFB1E001C01D92A930B207AB
:10015000E1F711E0CEE1D1E004C02297FE010E9458
:10016000851BC631D107C9F7E9D50C94051E48CFC8
:100170006115710581F0DB010D900020E9F7AD01FB
:1001800041505109461B570BDC01ED91FC91028057
:10019000F381E02D099480E090E008950F931F9380
:1001A000CF93DF938C01C0E0D0E0F80161917191B1
:1001B0008F016115710539F488EF92E0DF91CF91DD
:1001C0001F910F9196C22AEF30E040E050E086E0A8
:1001D00018D36AEF70E080E090E033D62196CA3001
:1001E000D10519F7E9CF42D726E040E855E260E0B3
:1001F00070E088EF92E04FD161E08AE0C8D640E835
:1002000055E260E070E087E192E00E94FF0C40E878
:1002100055E260E070E086E392E00E94050A86E322
:1002200092E00E94840A813041F06BE071E088EF37
:1002300092E062D28CE191E007C065E171E088EF65
:1002400092E05AD284E291E0A9DF64EF71E080E0AD
:1002500090E0F7D5E4CF8BE492E00E948C0D20E093
:1002600030E24CE150E06AE086E392E063D720E0C0
:1002700043E062E087E192E00E94D10C8CEF91E0D4
:100280000C94601287E192E00C947D0CCF9386E38E
:1002900092E00E94300A892B89F086E392E00E9466
:1002A000670AC82F40E150E0682F88EF92E08ED2B5
:1002B0006C2F8BE492E00E945A11E9CFCF91089500
:1002C00069E171E087E192E053DFE0DF68EE73E01F
:1002D00080E090E0B6C5FC01818D228D90E0805CCD
:1002E0009F4F821B91098F7399270895FC01918D6F
:1002F000828D981731F0828DE80FF11D858D90E089
:1003000008958FEF9FEF0895FC01918D828D9817CE
:1003100061F0828DDF01A80FB11D5D968C91928DE9
:100320009F5F9F73928F90E008958FEF9FEF0895E6
:1003300084E093E0892B41F080E090E0892B21F06C
:1003400063D181110C9400000895FC01848DDF01BC
:10035000A80FB11DA35ABF4F2C91848D90E0019638
:100360008F739927848FA689B7892C93A089B18927
:100370008C9180648C93938D848D981306C0028831
:10038000F389E02D80818F7D80830895CF93DF9363
:10039000EC01888D8823C1F0EA89FB89808185FD85
:1003A00005C0A889B9898C9186FD0EC00FB607FCDF
:1003B000F5CF808185FFF2CFA889B9898C9185FF1F
:1003C000EDCFCE01C2DFE8CFDF91CF910895CF927C
:1003D000DF92FF920F931F93CF93DF931F92CDB7BE
:1003E000DEB76C0181E0D60158968C9358975B96E6
:1003F0009C915B975C968C915C97981307C0509684
:10040000ED91FC915197808185FD2DC0F601038D02
:1004100010E00F5F1F4F0F731127F02EF601848D30
:10042000F81210C00FB607FCF9CFD6015096ED9127
:10043000FC915197808185FFF1CFC601698385DFEB
:100440006981ECCF838DE80FF11DE35AFF4F608384
:10045000D6015B960C935B975296ED91FC91539766
:10046000808180620CC0D6015696ED91FC91579721
:1004700060835096ED91FC915197808180648083D8
:1004800081E090E00F90DF91CF911F910F91FF904D
:10049000DF90CF900895BF92CF92DF92EF92FF92BC
:1004A000CF93DF93EC016A017B01B22EE889F989D1
:1004B00082E08083411581EE580761057105A1F046
:1004C00060E079E08DE390E0A70196010E94451B72
:1004D000215031094109510956954795379527957E
:1004E000211580E1380798F0E889F989108260E8E1
:1004F00074E88EE190E0A70196010E94451B21500F
:100500003109410951095695479537952795EC854D
:10051000FD853083EE85FF852083188EEC89FD896B
:10052000B082EA89FB89808180618083EA89FB89C6
:10053000808188608083EA89FB89808180688083EC
:10054000EA89FB8980818F7D8083DF91CF91FF9045
:10055000EF90DF90CF90BF9008951F920F920FB64B
:100560000F9211242F938F939F93EF93FF93E0911A
:100570000803F09109038081E0910E03F0910F03CD
:1005800082FD12C09081809111038F5F8F73209143
:100590001203821751F0E0911103F0E0E850FD4F93
:1005A000958F8093110301C08081FF91EF919F91FE
:1005B0008F912F910F900FBE0F901F9018951F9243
:1005C0000F920FB60F9211242F933F934F935F9387
:1005D0006F937F938F939F93AF93BF93EF93FF930B
:1005E00088EF92E0B2DEFF91EF91BF91AF919F91C2
:1005F0008F917F916F915F914F913F912F910F90CC
:100600000FBE0F901F90189588EF92E064DE21E0F6
:10061000892B09F420E0822F08951092FB0210929A
:10062000FA0288EE93E0A0E0B0E08093FC029093A1
:10063000FD02A093FE02B093FF0280E391E090934D
:10064000F9028093F80285EC90E090930503809383
:10065000040384EC90E0909307038093060380ECFE
:1006600090E0909309038093080381EC90E09093CD
:100670000B0380930A0382EC90E090930D03809328
:100680000C0386EC90E090930F0380930E0310927E
:100690001103109212031092130310921403089581
:1006A000CF92DF92EF92FF920F931F93CF93DF933E
:1006B0007C016A01EB0100E010E00C151D0571F0F2
:1006C0006991D701ED91FC910190F081E02DC70176
:1006D0000995892B19F00F5F1F4FEFCFC801DF91EC
:1006E000CF911F910F91FF90EF90DF90CF900895E1
:1006F0003FCD6CE371E03CCD0F931F93CF93DF931D
:10070000EC0136DD8C01CE01F4DF800F911FDF910B
:10071000CF911F910F9108958F929F92AF92BF92A8
:10072000DF92EF92FF920F931F93CF93DF93CDB79A
:10073000DEB7A1970FB6F894DEBF0FBECDBF7C0128
:10074000F42FD52ECB0119A2223008F42AE08E0115
:100750000F5D1F4F822E912CA12CB12C6F2F7D2D60
:10076000A50194010E94451BF22FD32ECA0101500E
:1007700011096A3014F4E0E301C0E7E3E60FD801A1
:10078000EC93232B242B252B49F7B801C701F0DC70
:10079000A1960FB6F894DEBF0FBECDBFDF91CF910B
:1007A0001F910F91FF90EF90DF90BF90AF909F90BF
:1007B0008F9008952115310541F4DC01ED91FC91F4
:1007C0000190F081E02D642F0994A6CF9A01462F65
:1007D00050E060E070E0EECF0F931F93CF93DF9374
:1007E000EC019A01462F50E060E070E0E3DF8C01FD
:1007F000CE017FDF800F911FDF91CF911F910F916D
:1008000008953F924F925F926F927F928F929F9244
:10081000AF92BF92CF92DF92EF92FF920F931F930E
:10082000CF93DF9300D000D0CDB7DEB78B01290185
:100830003A0190910601981721F09F3F09F0D9C124
:1008400004C0EAEBF0E0349081C080930601EAEB4B
:10085000F0E0E491EF3F09F4CCC1E13031F1E23056
:1008600009F44BC0E11171C014BC15BC94B5926081
:1008700094BD95B5916095BD282F30E0F901ED51FB
:10088000FF4FE491F0E0EE0FFF1FEF5FFE4F459149
:1008900054915093A5034093A403F901E153FF4FF2
:1008A00024912093A303312C53C010928000109206
:1008B00081009091810098609093810090918100D7
:1008C000916090938100282F30E0F901ED51FF4FA6
:1008D000E491F0E0EE0FFF1FEF5FFE4F4591549162
:1008E00050939E0340939D03F901E153FF4F2491E0
:1008F00020939C03332433942BC01092B0001092A9
:10090000B1009091B00092609093B0009091B100CE
:1009100091609093B100282F30E0F901ED51FF4F25
:10092000E491F0E0EE0FFF1FEF5FFE4F4591549111
:100930005093970340939603F901E153FF4F24919D
:100940002093950352E0352E03C03E2E37FC51C153
:1009500061E01DD34801A12CB12C832D8D7F09F0BE
:10096000C7C060E072E18AE790E0A50194010E94AF
:10097000671B29833A834B835C8369017A0181E099
:10098000C81AD108E108F1089FEFC916D104E104A3
:10099000F10409F008F49AC060E472E48FE090E09A
:1009A000A50194010E94671B69017A01E1E0CE1A5A
:1009B000D108E108F108F2E03F1219C08FEFC81624
:1009C000D104E104F10409F008F48AC060E970ED93
:1009D00083E090E0A50194010E94671B69017A0100
:1009E00091E0C91AD108E108F10883E001C082E072
:1009F000EFEFCE16D104E104F10409F008F467C06A
:100A000068E478EE81E090E0A50194010E94671B04
:100A100069017A01F1E0CF1AD108E108F108332029
:100A2000E1F082E038121BC09FEFC916D104E10447
:100A3000F10409F008F4DBC064E274EF80E090E0B8
:100A4000A50194010E94671B69017A01E1E0CE1AB9
:100A5000D108E108F10885E003C083E001C084E02B
:100A6000FFEFCF16D104E104F10489F180F162E1D6
:100A70007AE780E090E0A50194010E94671B69017C
:100A80007A0181E0C81AD108E108F108311002C0EA
:100A900084E001C086E09FEFC916D104E104F104AF
:100AA000B1F0A8F0C980DA80EB80FC809AE0F59480
:100AB000E794D794C7949A95D1F7E1E0CE1AD1087C
:100AC000E108F108332031F087E00BC081E03320EA
:100AD00011F007C085E095B5987F982B95BD38C07B
:100AE00082E09091B100987F982B9093B10030C034
:100AF00060E072E18AE790E0A50194010E94671B23
:100B000069017A01F1E0CF1AD108E108F108C114B6
:100B1000D10481E0E806F10488F068E478EE81E031
:100B200090E0A50194010E94671B69017A0191E0A0
:100B3000C91AD108E108F10893E001C091E0E1E0B1
:100B40003E1206C080918100887F892B80938100AE
:100B5000411451046104710471F0D801AA0FBB1F44
:100B6000A30192010E94891B28EE33E040E050E08F
:100B70000E94451B03C02FEF3FEFA901F1E03F1694
:100B8000A1F082E0381619F1311033C0C7BC2093B0
:100B9000A6033093A7034093A8035093A903809121
:100BA0006E00826080936E0024C0D0928900C09253
:100BB000880020939F033093A0034093A103509398
:100BC000A20380916F00826080936F0012C0C09278
:100BD000B300209398033093990340939A03509362
:100BE0009B038091700082608093700002C084E05B
:100BF00078CF0F900F900F900F90DF91CF911F91B2
:100C00000F91FF90EF90DF90CF90BF90AF909F90AB
:100C10008F907F906F905F904F903F9008958130BC
:100C200039F018F0823051F0089510926E00089556
:100C300080916F008D7F80936F0008958091700088
:100C40008D7F8093700081E08093B0008091B1002F
:100C5000887F84608093B1001092B3000895CF9391
:100C6000C82F809106018C1307C0EAEBF0E0849155
:100C70009FEF9093060101C08FEFD1DF60E08C2FD2
:100C8000CF91BEC11F920F920FB60F9211242F93D6
:100C90003F934F935F936F937F938F939F93AF9304
:100CA000BF93EF93FF938091980390919903A09144
:100CB0009A03B0919B03892B8A2B8B2B51F1909136
:100CC0009503E0919603F0919703808189278083B3
:100CD0008091980390919903A0919A03B0919B03FE
:100CE000181619061A061B06BCF4809198039091F9
:100CF0009903A0919A03B0919B030197A109B109AF
:100D00008093980390939903A0939A03B0939B03C5
:100D100003C080910601A3DFFF91EF91BF91AF91D6
:100D20009F918F917F916F915F914F913F912F9103
:100D30000F900FBE0F901F9018950895C4D0FDDF3F
:100D400052DAC8E9D1E0BCDA2097E9F3F1DAFBCF57
:100D50001F920F920FB60F9211242F933F938F93F0
:100D60009F93AF93BF938091AB039091AC03A091FD
:100D7000AD03B091AE033091AA0323E0230F2D37CA
:100D800020F40196A11DB11D05C026E8230F02968F
:100D9000A11DB11D2093AA038093AB039093AC03D4
:100DA000A093AD03B093AE038091AF039091B003D5
:100DB000A091B103B091B2030196A11DB11D809322
:100DC000AF039093B003A093B103B093B203BF916C
:100DD000AF919F918F913F912F910F900FBE0F90E8
:100DE0001F9018952FB7F8946091AB037091AC03E6
:100DF0008091AD039091AE032FBF08953FB7F89453
:100E00008091AF039091B003A091B103B091B20370
:100E100026B5A89B05C02F3F19F00196A11DB11D55
:100E20003FBF6627782F892F9A2F620F711D811D72
:100E3000911D42E0660F771F881F991F4A95D1F7D1
:100E400008958F929F92AF92BF92CF92DF92EF92CE
:100E5000FF926B017C01D2DF4B015C01C114D10414
:100E6000E104F104E1F001D1C9DF681979098A09C7
:100E70009B09683E73408105910580F321E0C21A09
:100E8000D108E108F10888EE880E83E0981EA11CC5
:100E9000B11CC114D104E104F10431F7DFCFFF909C
:100EA000EF90DF90CF90BF90AF909F908F9008957C
:100EB0008230910538F0880F991F880F991F059788
:100EC0000197F1F70895789484B5826084BD84B564
:100ED000816084BD85B5826085BD85B5816085BD35
:100EE000EEE6F0E0808181608083E1E8F0E010824E
:100EF000808182608083808181608083E0E8F0E08F
:100F0000808181608083E1EBF0E080818460808378
:100F1000E0EBF0E0808181608083EAE7F0E08081AF
:100F2000846080838081826080838081816080830F
:100F30008081806880831092C1000895833081F0A1
:100F400028F4813099F08230A1F008958730A9F01B
:100F50008830B9F08430D1F4809180008F7D03C057
:100F6000809180008F7780938000089584B58F777B
:100F700002C084B58F7D84BD08958091B0008F77C5
:100F800003C08091B0008F7D8093B0000895CF930F
:100F9000DF9390E0FC01E153FF4F2491FC01ED5100
:100FA000FF4F8491882349F190E0880F991FFC013D
:100FB000E55FFE4FA591B4918F5F9E4FFC01C591F7
:100FC000D4919FB7611108C0F8948C912095822329
:100FD0008C93888182230AC0623051F4F8948C91FA
:100FE000322F309583238C938881822B888304C091
:100FF000F8948C91822B8C939FBFDF91CF910895B1
:101000000F931F93CF93DF931F92CDB7DEB7282F97
:1010100030E0F901E554FF4F8491F901E153FF4FAE
:101020001491F901ED51FF4F04910023C1F0882381
:1010300019F0698383DF6981E02FF0E0EE0FFF1F75
:10104000EF5FFE4FA591B4919FB7F8948C91611119
:1010500003C01095812301C0812B8C939FBF0F90FB
:10106000DF91CF911F910F9108950895CF93CFB73E
:10107000F8948091B603811123C0EDEEF0E08491E5
:10108000E9EDF0E09491E82FF0E0EE0FFF1FE55F4F
:10109000FE4FA591B4918C91892319F461E08AE007
:1010A000AFDF61E08AE073DF8CB580618CBD8CB509
:1010B00080648CBD61E08DE06ADF61E08BE067DF1A
:1010C0008091B6038F5F8093B603CFBFCF91089511
:1010D0002091B503222399F03FB7F8942091B503EE
:1010E000213059F42DB32093B3034DB32091B403B1
:1010F000209524232DBB3FBF02C03093B3038CBD8A
:101100009DBD08958EBD00000DB407FEFDCF8EB5C8
:1011100008958091B503882361F09FB7F8942091DA
:10112000B5038091B303213019F48DBB9FBF08959F
:101130008FBF0895CF92DF92EF92FF92CF93DF930C
:10114000EC01862F1B821A8298EEC92E93E0D92ECD
:10115000E12CF12CCC82DD82EE82FF82E0EAF1E02C
:10116000F983E8832C873D874E875F87688B61E032
:101170000EDF1C8ADF91CF91FF90EF90DF90CF9030
:1011800008951F93CF93DF93EC01162F8091B7033F
:101190009091B8039DDF60E0888932DF8AE090E0BB
:1011A00087DE28E0129FC00111248068ABDF8FEF3B
:1011B000A9DF182F8AE090E07BDE61E0888920DFDC
:1011C000A8DF812FDF91CF911F9108951F93CF93B7
:1011D000DF93EC018091B7039091B80379DF60E071
:1011E00088890EDF6BE471E088EF92E00E94B8001E
:1011F00065E0CE01C6DF182F4AE050E0682F88EF87
:1012000092E0E4DA67E571E088EF92E071DA15FFC9
:10121000EFCF61E08889F4DE7CDF69E571E088EF7B
:1012200092E0DF91CF911F910C94B800EF92FF9262
:101230001F93CF93DF931F92CDB7DEB77C01162F9C
:101240008091B7039091B803498342DF60E0F701D2
:101250008089D6DE8AE090E02BDE812F880F880F10
:10126000880F50DF4981842F4DDF8AE090E020DE37
:1012700061E0F7018089C4DE0F90DF91CF911F916B
:10128000FF90EF9046CF8F929F92BF92CF92DF92C6
:10129000EF92FF920F931F93CF93DF93EC016A01BC
:1012A0007B019A01AB0164E0220F331F441F551FDD
:1012B0006A95D1F76C857D858E859F850E94451B3B
:1012C000122FB32E822E932E63E0CE015ADF082F09
:1012D000482F406863E0CE01A9DF412F60E0CE01D6
:1012E000A5DF4B2D61E0CE01A1DF402F4F7763E0FA
:1012F000CE019CDFC701B6010E94BA1C6B017C01C4
:10130000940174E0220F331F7A95E1F740E050E03A
:101310006C857D858E859F850E94451BCA01B9011C
:101320000E94BA1CA70196010E94BC1B20E030E07D
:101330004AE754E40E94481DA70196010E94211C1F
:101340000E94891CCB01DF91CF911F910F91FF90DB
:10135000EF90DF90CF90BF909F908F900895EF9285
:10136000FF921F93CF93DF9300D0CDB7DEB77C0100
:10137000162F63E02A83498304DF807C2A81498118
:10138000163041F018F4153041F006C0173021F442
:10139000826003C0816001C08360223009F48460F0
:1013A000423031F0433031F0413029F4886003C0DD
:1013B000886101C08360482F63E0C7010F900F90E0
:1013C000DF91CF911F91FF90EF9030CFCF93DF93BC
:1013D000EC016EE0D6DE482F48606EE0CE01DF9172
:1013E000CF9124CF1F93CF93DF93EC01162F62E0B0
:1013F000C8DE482F111102C04E7F01C0416062E07B
:10140000CE01DF91CF911F9111CFCF92DF92EF925A
:10141000FF92CF93DF93EC016A017B018091B703C8
:101420009091B80355DE60E08889EADDCE01CEDF19
:1014300061E0CE01D7DFB701A601CE0124DF21E0B4
:1014400040E068E0CE018BDF61E08889D9DDDF9183
:10145000CF91FF90EF90DF90CF905BCE69E091CE7F
:10146000FDDF90E008950F931F93CF93DF931F92BA
:10147000CDB7DEB78C01462F65E0C801498381DE18
:10148000498185FFF9CF60E0C8010F90DF91CF91CE
:101490001F910F91CBCEE7CF08950F931F93CF935A
:1014A000DF931F92CDB7DEB78C01D8DF882339F0E8
:1014B00060E0C80166DE8983898190E002C08FEF19
:1014C0009FEF0F90DF91CF911F910F910895FC0135
:1014D0002489211101C0E1CFFC01148A82899389FA
:1014E0000895CF93DF93EC018C89811108C0CE0160
:1014F000D4DF9B8B8A8B97FD02C081E08C8B8A891D
:101500009B89DF91CF9108950F931F93CF93DF9322
:10151000EC018091B7039091B803DADD60E088892F
:101520006FDD45E567E0CE0181DE67E0CE0129DEB3
:10153000182F853591F162E671E088EF92E0D8D8F6
:1015400040E150E0612F88EF92E040D967E571E01B
:1015500088EF92E0CDD867E0CE0113DE40E150E0A5
:10156000682F88EF92E032D967E0CE010ADE40E1D1
:1015700050E0682F88EF92E029D967E571E088EFA5
:1015800092E0B6D867E0CE01FCDD40E150E0682F84
:1015900088EF92E021D910E001C011E04AEA67E04B
:1015A000CE0144DE67E0CE01ECDD082F8A3A09F473
:1015B00036C06FE771E088EF92E09AD840E150E0E2
:1015C000602F88EF92E002D967E571E088EF92E042
:1015D0008FD867E0CE01D5DD40E150E0682F88EF7D
:1015E00092E0F4D867E571E088EF92E081D867E097
:1015F000CE01C7DD40E150E0682F88EF92E0E6D8E9
:1016000067E571E088EF92E073D867E0CE01B9DD5D
:1016100040E150E0682F88EF92E0DED810E061E012
:101620008889EEDC76DD812FDF91CF911F910F91BC
:10163000089581E58093B70381E08093B80308950E
:101640002091FB033091FC0328173907B9F49091DE
:10165000B9038091BA03981789F0E091B903F0E0DB
:10166000E554FC4F80812091B90330E02F5F3F4F5C
:101670002F7333272093B90390E008958FEF9FEFE6
:1016800008951F93CF93DF93DC015C968D919C911D
:101690005D97009749F481E090E013969C938E93B8
:1016A000129780E090E03BC05196ED91FC915297EB
:1016B00050962C915097322F30951FB75E964C91D3
:1016C0005E9741FB772770F941FD6095F894408162
:1016D000772311F0422B01C043234083EC01219773
:1016E000F1F748E0508160FF02C0522B01C0532344
:1016F0005083EC012197F1F76695415099F780816D
:10170000772311F0832301C0822B80831FBF5C9657
:101710008D919C915D970197F1F781E090E0DF91C9
:10172000CF911F91089508952091FB033091FC0300
:101730002817390781F49091B9038091BA0398175B
:1017400051F0E091B903F0E0E554FC4F8081992716
:1017500087FD909508958FEF9FEF08952091FB03EB
:101760003091FC032817390769F48091BA0320915E
:10177000B90390E0805C9F4F821B910960E470E0A8
:101780000C94321B80E090E00895E091FB03F0910F
:10179000FC03E817F90769F4A389B4899C9185894A
:1017A000809589238C931092FC031092FB0381E0B7
:1017B000089580E00895CF93DF93EC018A8D9B8D8F
:1017C000892BE9F08091FB039091FC038C179D0716
:1017D000B1F0009709F0D9DF8E8D8E7F8E8F109239
:1017E000BA031092B903D093FC03C093FB03EB89B7
:1017F000FC8980819D89892B808381E001C080E004
:10180000DF91CF9108951F920F920FB60F9211247E
:101810002F933F934F935F936F937F938F939F93F8
:10182000AF93BF93EF93FF93E091FB03F091FC0321
:10183000309709F451C0868DA685B785958581FFBF
:1018400004C08C91892329F447C08C91892309F025
:1018500043C0A389B4899C918589809589238C9301
:10186000868997890197F1F7208D318DA685B785F7
:10187000758558E040E0C9010197F1F7842F90E0A9
:1018800095958795482F6C91672309F040685150D2
:1018900091F7868D81FD40958091BA0390E0019685
:1018A0008F7399272091B903281749F0A091BA03A3
:1018B000B0E0A554BC4F4C938093BA0303C0868D0F
:1018C0008160868F828D938D0197F1F7A389B4890A
:1018D0008C919589892B8C93FF91EF91BF91AF915A
:1018E0009F918F917F916F915F914F913F912F9138
:1018F0000F900FBE0F901F90189520EB31E0FC0168
:101900003183208342CF1F93CF93DF93EC01162FB7
:101910006E8D6695617081E06827812F71DB61E0D3
:10192000812F35DB812F90E0FC01E153FF4FE491E3
:10193000E88BFC01ED51FF4FE491F0E0EE0FFF1F4B
:10194000EF5FFE4F859194919A8B898BDF91CF91B8
:101950001F9108951F93CF93DF93EC01162F60E042
:10196000812F15DB8E8D81FD03C061E0812F48DB67
:101970001C87812F90E0FC01E153FF4FE491ED873C
:10198000FC01ED51FF4FE491F0E0EE0FFF1FE95035
:10199000FF4F859194919F878E87DF91CF911F9103
:1019A0000895FF920F931F93CF93DF93EC01F62ED0
:1019B000522F1B821A8208EE13E020E030E00C83E5
:1019C0001D832E833F8380EB91E0998388831F8A58
:1019D0001E8A198E188E1B8E1A8E1D8E1C8E8E8D51
:1019E0008E7F50FB81F98E8F642FCE018CDF6F2D9F
:1019F000CE01DF91CF911F910F91FF90ABCFCF938D
:101A0000DF93EC019A01AB011B8E1A8E198E188E92
:101A10001F8A1E8A60E079E08DE390E00E94671BD8
:101A2000C9012430310520F0B9016350710902C0A9
:101A300061E070E07D8F6C8FEC85E63108F068C066
:101A4000B901769567956431710518F06351710994
:101A500002C061E070E07F8B6E8B069718F0C901C1
:101A6000059702C081E090E0998F888FC901880FA7
:101A7000991F820F931F96958795969587958D3020
:101A8000910510F00C9702C081E090E09B8F8A8F47
:101A900020916800E83050F091E0EE3008F490E0DA
:101AA00081E001C0880F9A95EAF701C084E0822B9B
:101AB000809368002C85283038F02E3040F0263195
:101AC00048F48CE690E008C08DE690E005C08BE617
:101AD00090E002C080E090E09C8B8B8B283030F44B
:101AE00081E001C0880F2A95EAF70DC0822F90E0AF
:101AF0002E3010F4089701C00E9791E001C0990FA5
:101B00008A95EAF7892F8D8B8C8D9D8D0197F1F742
:101B1000CE01DF91CF914FCEFC0110821182138252
:101B200012821482158216821782108612861186FE
:101B300013861486158616861786118A108A128ACD
:101B4000138A148A158A168A108E178A118E128E9D
:101B5000138E148E158E12A213A214A215A216A211
:101B600017A210AA11AA12AA13AA14AA15AA16AE8D
:101B700017AEDC01AC5BBF4F1D921D921D921C92F3
:101B8000139718961C9211961C92119716961D92F7
:101B90001D921D921C9219971E961C9211961C92D2
:101BA000119716961D921D921D921C9219971E96C2
:101BB0001C9211961C92119716961D921D921D92C1
:101BC0001C9219971E961C9211961C9211971696AC
:101BD0001D921D921D921C9219971E961C92119691
:101BE0001C92509682E08C9311961C9211961C9236
:101BF00011961C92119611961C921E921296119695
:101C00001C921E9212961D921D921D921C92139769
:101C100014961D921D921D921C92139714961D925C
:101C20001D921D921C92139714961D921D921D9247
:101C30001C921397EA57FF4F108208952FEB260F3F
:101C4000862F992787FD9095263010F4C797089521
:101C50006156663018F4875591090895C097089524
:101C6000FF920F931F93CF93DF93EC01FF24F39424
:101C700088818D3211F0F12C01C02196CE010E9495
:101C8000AB1D9B01AC01A4E6B0E00E94891BFE01E4
:101C90004991242F332727FD3095205331092A30CD
:101CA0003105A8F34E3241F52181332727FD3095C8
:101CB000205331092A303105F8F44AE0429F80016F
:101CC000439F100D1124222717FD2095322F600FFE
:101CD000711F821F931F0281112707FD109500536A
:101CE00011090A30110540F4222717FD2095322FE3
:101CF000600F711F821F931FFF2039F09095809510
:101D0000709561957F4F8F4F9F4FDF91CF911F91BE
:101D10000F91FF9008952F923F924F925F926F9292
:101D20007F928F929F92AF92BF92CF92DF92EF926B
:101D3000FF920F931F93CF93DF93D82FC92F8B015F
:101D40000E94AB1D24E630E040E050E00E94451BBD
:101D500049015A019B01AC0160E876E988E990E00D
:101D60000E94231B6B017C01F80191828082ED2F80
:101D7000FC2F2191822F992787FD9095C0970A9774
:101D8000C0F32E3239F51F0180E8882E86E9982E9F
:101D900088E9A82EB12C9AE0492E512C612C712C87
:101DA000F101C1911F01DD27C7FDD095E097CA3031
:101DB000D10580F4C501B401A30192010E94451B25
:101DC00049015A01DE010E94931BC60ED71EE81E70
:101DD000F91EE6CFA5E0B0E0A70196010E94891B9D
:101DE0006F5F7F4F8F4F9F4F23E030E040E050E028
:101DF0000E94451BF8012283338344835583168256
:101E0000DF91CF911F910F91FF90EF90DF90CF90D6
:101E1000BF90AF909F908F907F906F905F904F900A
:101E20003F902F900895CF93DF93EC0187E0FE0160
:101E30007096DE01129601900D928A95E1F787E087
:101E4000FE017796DE01199601900D928A95E1F7D1
:101E50000E94F2066E8F7F8F88A399A381E0898309
:101E60008883DF91CF910895CF93DF93EC014E816A
:101E70005F81688579854A835B836C837D830E945B
:101E8000F2066A877B878C879D8781E089838883B8
:101E9000DF91CF910895CF93DF93EC014E815F8165
:101EA000688579854A835B836C837D830E94F20613
:101EB0006A877B878C879D8781E089838883DF9110
:101EC000CF910895CF93DF93EC01CB01C9DE6E83F0
:101ED0007F8388879987DF91CF910895CF93DF9390
:101EE000EC01CB010E94AB1D6E837F8388879987AD
:101EF000DF91CF910895CF93DF93EC014A855B8505
:101F00006C857D854E835F83688779870E94F206A2
:101F10006A837B838C839D8381E089838883DF91BF
:101F2000CF910895CF93DF93EC01CB0199DE6A87BF
:101F30007B878C879D87DF91CF910895CF93DF9327
:101F4000EC014A855B856C857D854E835F83688760
:101F500079870E94F2066A837B838C839D8381E06C
:101F600089838883DF91CF910895CF93DF93EC012C
:101F7000CB010E94AB1D6A877B878C879D87DF9191
:101F8000CF910895CF93DF93EC01BC0140960E945E
:101F9000DA1D0E94F20668A379A38AA39BA381E0BD
:101FA0008DA38CA3DF91CF91089540E150E00C9474
:101FB000E11DAF92BF92CF92DF92FF920F931F93DA
:101FC000CF93DF93EC01FC01EB57FF4FF080FF2034
:101FD00009F490C03196608131DE182FFE01E95777
:101FE000FF4F6081CE012ADE40E1149F800D112455
:101FF000FE01EC57FF4F908189136CC0B59640816C
:102000005181628173814F5F5F4F6F4F7F4F40837C
:102010005183628373838E0108561F4FD8018C91C0
:10202000882369F0389740815181628173814F5FC5
:102030005F4F6F4F7F4F4083518362837383FE01F5
:10204000EB56FF4F80818823A9F0813041F5CE0106
:1020500082960ADFCE01C0961EDFF80180818823B8
:10206000F1F0CE01E0DECE01CE9645DFCE01845BFD
:102070009F4F14C0CE01C0960EDFD8018C918823EB
:1020800031F0CE01D0DECE01865A9F4F34DFCE0133
:1020900088599F4F53DFCE018A589F4F2CDF8E0106
:1020A00005561F4FF801C081D181209709F4F7C070
:1020B000D801ED91FC9166A177A18EA19FA10E940C
:1020C000D11D892B09F0EBC0CE015CDF0AA4DBA592
:1020D000C02DEBCFCB55DF4F488159816A817B8181
:1020E0004F5F5F4F6F4F7F4F488359836A837B8376
:1020F000F12CD5C06C01B6E9CB0ED11CF6013081B4
:102100008B569F4F5C018E0105561F4F311134C015
:102110006E0196E8C90ED11C6CEB71E0C6010E94FD
:10212000D11D892B11F481E00BC062EC71E0C60176
:102130000E94D11D892B19F4F501108203C082E0A1
:10214000D5018C93C756DF4F88819981F80191831F
:102150008083F801C081D181209709F4A0C0B60125
:102160008EA19FA10E94D11D97FF94C08AA59BA517
:10217000D8018D939C93EDCFDC01EC91E23009F412
:102180005EC0CE018A579F4FDC012C91222309F4B7
:1021900056C0B0E2EB9FF0011124E32B3197E932F6
:1021A000F10508F04CC0EC5CFF4F0C94831BBC01A4
:1021B000CE01C09687DE43C0FE01E856FF4F81E0A6
:1021C000213451F52AC0BE01605F7F4F09C081E014
:1021D000233509F080E08E8B32C0BE01695E7F4FEF
:1021E0009ADD2DC081E0273509F080E08D8F27C072
:1021F000BC01CE01CE9622C0BC01CE01845B9F4FB4
:102200001DC0BC01CE01829669DE19C0FE01E856F0
:10221000FF4F81E021330CF480E0808310C0BC01CB
:10222000CE0188599F4FA1DE0AC0BC01CE018A5859
:102230009F4F04C0BC01CE01865A9F4F73DEF80148
:10224000A080B180CA57DF4FA114B10441F1D80179
:10225000ED91FC9166A177A1F50186A197A10E945D
:10226000D11D892BE1F4D50198962D913C91999738
:10227000F601808190E0821793078CF028173907C8
:1022800019F4BE01C50191DED5019A96AD90BC90BE
:102290009B97DACF892B19F0D8011D921C928F2DB4
:1022A000DF91CF911F910F91FF90DF90CF90BF9062
:1022B000AF900895CF92DF92EF92FF920F931F930A
:1022C000CF93DF931F92CDB7DEB76C01262FFC01B1
:1022D000E356FF4F40815181628173814F5F5F4FB1
:1022E0006F4F7F4F40835183628373838C01095604
:1022F0001F4F8B579F4F7C01243271F12CF42A30F1
:1023000069F02D30D9F50AC02A3241F02C32B1F5EE
:10231000F601EC57FF4F808182278083F80180818E
:102320008F3058F4F601E80FF11DEA57FF4F108285
:10233000C60129833EDE298101C080E0F601EA560C
:10234000FF4F90819F5F9083F801108291E02A32C5
:1023500009F090E0F70128C0F8011082F601EA5672
:10236000FF4F108272971082719682E08083F7018E
:102370001082F601E856FF4F108218C0F8018081E4
:102380008E3048F491E0980F9083F601E80FF11D2C
:10239000EA57FF4F2083F7018081811107C0F601C2
:1023A000EC57FF4F90819227908301C080E00F90FF
:1023B000DF91CF911F910F91FF90EF90DF90CF9021
:1023C0000895CF93DF931F92CDB7DEB76983DC0109
:1023D000ED91FC910280F381E02D41E050E0BE01DF
:1023E0006F5F7F4F09950F90DF91CF910895CF9345
:1023F000DF93EC01898D9A8D009751F0FC011382D7
:102400001282E4D2E98DFA8D22813381232B31F0BF
:1024100081E090E09B838A8380E090E0DF91CF9120
:102420000895FC01818D928D009709F08AC208956C
:10243000CF93DF931F92CDB7DEB741E050E0BE01EE
:102440006F5F7F4FDED0019719F4898190E002C061
:102450008FEF9FEF0F90DF91CF910895FC01818D59
:10246000928D009709F0E4CF8FEF9FEF08950F93BF
:102470001F93CF93DF938C01FC01818D928D009788
:10248000A9F0D6DFEC018F3FFFEF9F0791F0F80135
:10249000818D928DFC0142855385648575854150FF
:1024A000510961097109B2D1CE0105C080E090E007
:1024B00002C08FEF9FEFDF91CF911F910F91089591
:1024C000FC011382128248EE53E060E070E0448326
:1024D00055836683778380EF91E091838083128EAA
:1024E000118E14860895DC015996ED91FC915A974E
:1024F000309729F0628573858485958508956FEFFF
:102500007FEFCB010895DC015996ED91FC915A972C
:10251000309729F06389748985899689089560E0E8
:1025200070E0CB010895CF92DF92EF92FF92CF93AC
:10253000DF93EC01898D9A8D892BC9F0CE01E3DF01
:102540006B017C01CE01CFDFA7019601261B370B63
:10255000480B590BDA01C901811530E89307A10531
:10256000B10538F08FEF9FE7A0E0B0E002C080E057
:1025700090E0DF91CF91FF90EF90DF90CF900895A2
:10258000CF93DF93EC019C012A5F3F4F41E050E085
:1025900060E070E08B8D9C8D46D58823A1F04F893B
:1025A000588D698D7A8D452B462B472B71F44E81C2
:1025B0005F81688579854F8B588F698F7A8F8C8181
:1025C00080688C8302C080E001C081E0DF91CF9100
:1025D0000895CF93DF93EC01462F6E857F85888920
:1025E0009989C5D3882341F08A8920E2829FC0015E
:1025F00011248A5F9B4F02C080E090E0DF91CF9171
:1026000008952F923F924F925F926F927F928F9296
:102610009F92AF92BF92CF92DF92EF92FF920F9371
:102620001F93CF93DF93EC016B015A018D818111D0
:1026300003C08FEF9FEFD7C08C8180FFFACF4B890B
:102640005C896D897E898A859B85AC85BD852501E0
:10265000612C712C8A019B01081B190B2A0B3B0B67
:10266000041515052605370518F45A01A81AB90AE4
:1026700025011E0126E0220E311C4114510409F4EB
:102680007AC04A855B856C857D854A0181E0982208
:10269000ED818A019B01F9E03695279517950795FD
:1026A000FA95D1F78B8D9C8DE23051F4FC01628D4F
:1026B000738D848D958D600F711F821F931F3DC098
:1026C000FC0174807A94702281149104C1F4711019
:1026D00016C0452B462B472B49F48F89988DA98D21
:1026E000BA8D8E839F83A887B98709C04E815F8189
:1026F00068857985910174D3882309F49ACFEB8D8D
:10270000FC8D6E817F818885998562507109810970
:102710009109058404C0660F771F881F991F0A94CA
:10272000D2F70685178520893189600F711F821FB6
:10273000931F670D711D811D911D20E032E0281946
:10274000390932012415350508F439012C8126FD9B
:1027500004C06114F2E07F0699F500910701109121
:1027600008012091090130910A0160177107820761
:10277000930719F425C0C50136C076018301940181
:10278000AB01BC01809104049091050446D68823D6
:1027900009F44FCFC60CD71C04C0E81BF90BCE0EB2
:1027A000DF1E8A859B85AC85BD85860D971DA11D85
:1027B000B11D8A879B87AC87BD87461857085DCFB8
:1027C00040E0D5D2882309F434CFC4018A5F9B4FFF
:1027D000D6019C01260D371DFC01E217F307E9F233
:1027E00041914D93FACFDF91CF911F910F91FF90BF
:1027F000EF90DF90CF90BF90AF909F908F907F90A1
:102800006F905F904F903F902F9008954F925F92FE
:102810006F927F92AF92BF92CF92DF92EF92FF9230
:102820000F931F93CF93DF93EC016A017B012D81FE
:10283000222309F456C08B899C89AD89BE898417EF
:102840009507A607B70708F44CC04DC08A859B853D
:10285000AC85BD85EB8DFC8DE585F0E03996AC014E
:10286000BD0141505109610971090E2E04C07695D0
:102870006795579547950A94D2F7970186010150BD
:1028800011092109310904C0369527951795079537
:10289000EA95D2F70417150726073707A8F58F8999
:1028A000988DA98DBA8D8E839F83A887B9872801BB
:1028B00039015E0186E0A80EB11C41145104610487
:1028C000710459F14E815F816885798595018B8D01
:1028D0009C8D86D291E0491A5108610871088111D6
:1028E000ECCF80E01FC02230C1F0C114D104E1045C
:1028F000F10409F0ABCF1E821F82188619861A8652
:102900001B861C861D860DC0892B8A2B8B2B39F2CA
:10291000041B150B260B370BCACFCA86DB86EC8649
:10292000FD8681E0DF91CF911F910F91FF90EF9095
:10293000DF90CF90BF90AF907F906F905F904F905F
:1029400008950F931F93CF93DF93EC018D8188231C
:10295000B9F18C8187FF2FC061E0CE013ADE8C0196
:10296000009771F18D81823048F44B895C896D89C3
:102970007E89F801448F558F668F778F4F89588DE8
:10298000698D7A8DF801538F428F758B648BE0913E
:10299000FD03F091FE03309759F0B8016A5E7F4F56
:1029A000C80148960995F801808D918D938B828B93
:1029B0008C818F778C83DF91CF911F910F919EC176
:1029C00080E0DF91CF911F910F9108952F923F9258
:1029D0004F925F926F927F928F929F92AF92BF922F
:1029E000CF92DF92EF92FF920F931F93CF93DF93DB
:1029F00000D000D01F92CDB7DEB78C017B013A0129
:102A0000DC0115968C9115978130C1F414968C9148
:102A100081FF14C082FF1AC0F80143895489658977
:102A2000768982859385A485B58584179507A60741
:102A3000B70761F0C801EADE811108C081E090E0CB
:102A4000F8019383828380E090E040C163017FC0FE
:102A5000D8015B968D919C915C97FC01F481F150BB
:102A6000B501A40129E076956795579547952A9574
:102A7000D1F7F423FD8321E09222FF2309F473C0F0
:102A800080E092E08819990956018C159D0508F49B
:102A90005C01D8015B96ED91FC915C9716962D90A8
:102AA0003D904D905C901997B2E02B1A3108410887
:102AB0005108058404C0220C331C441C551C0A9484
:102AC000D2F786859785A089B189280E391E4A1EBE
:102AD0005B1EED812E0E311C411C511CA114F2E035
:102AE000BF0609F085C08091070190910801A0916F
:102AF0000901B0910A0182159305A405B50559F4A1
:102B00008FEF9FEFDC018093070190930801A09362
:102B10000901B0930A019701B201A1018091040457
:102B20009091050443D5882309F488CF9EEFF91AC4
:102B3000CA18DB08F80182859385A485B5858A0DBE
:102B40009B1DA11DB11D82879387A487B587D801DE
:102B50001A968D909D90AD90BC901D97C114D10494
:102B600009F076CF86C08114910409F089CF1696BA
:102B70004D915D916D917C911997411551056105BC
:102B8000710559F457968D919D910D90BC91A02D92
:102B90000097A105B10531F520C09E012F5F3F4F81
:102BA0001FD1882309F450CF89819A81AB81BC81E0
:102BB000F801238D348DF9012789203129F448EF5C
:102BC0005FEF60E070E004C048EF5FEF6FEF7FE021
:102BD00084179507A607B70728F0C801D1DC811133
:102BE0004FCF2CCFF80186839783A087B18748CF3A
:102BF0008114910421F5D8011A964D915D916D9142
:102C00007C911D9753968D919D910D90BC91A02D17
:102C1000481759076A077B0790F070D0882309F49A
:102C20000DCF209207013092080140920901509285
:102C30000A018091030481608093030407C041E08E
:102C4000C201B10194D0882309F4F8CEC4018A5F8F
:102C50009B4FD7019C012A0D3B1DFC01E217F30796
:102C600019F04D914193FACFE81BF90BEE0EFF1EC0
:102C70005FCF53968D919D910D90BC91A02DF80141
:102C8000248188159905AA05BB0538F4838A948A9E
:102C9000A58AB68A206824830CC08091FD03909198
:102CA000FE03892B31F06114710419F02068F801DA
:102CB0002483D80114968C9183FD02C0C30106C001
:102CC000C8013FDE882309F4B9CEF8CF0F900F90EA
:102CD0000F900F900F90DF91CF911F910F91FF9068
:102CE000EF90DF90CF90BF90AF909F908F907F90AC
:102CF0006F905F904F903F902F90089580910304C4
:102D0000882389F1409107015091080160910901E0
:102D100070910A0126E034E080910404909105044A
:102D200045D4882311F14091FF0350910004609134
:102D3000010470910204411551056105710589F086
:102D400026E034E080910404909105042FD4882378
:102D500061F01092FF03109200041092010410928F
:102D600002041092030481E0089580E00895CF9258
:102D7000DF92EF92FF92CF936B017C01C42F809181
:102D8000070190910801A0910901B0910A018C15E9
:102D90009D05AE05BF05C1F0B1DF811102C080E025
:102DA00019C026E034E0B701A60180910404909197
:102DB0000504ACD3882399F3C0920701D09208018F
:102DC000E0920901F0920A01809103048C2B809318
:102DD000030481E0CF91FF90EF90DF90CF900895B2
:102DE0008F929F92AF92BF92CF92DF92EF92FF921B
:102DF0000F931F93CF93DF938C016A017B01E9014D
:102E0000FC0181859285A385B4850196A11DB11D24
:102E100084179507A607B70710F480E057C0F8019C
:102E200043895489658976898789803129F4BB274C
:102E3000AF2D9E2D8D2D09C0D701C60127E0B69577
:102E4000A795979587952A95D1F74C015D01840E3A
:102E5000951EA61EB71EC501B40180900701909073
:102E60000801A0900901B0900A01681579058A054A
:102E70009B0589F4F8018789803191F4DD24EE24E3
:102E8000FF24F601EE0FFF1FEA5FFB4F8081918167
:102E9000A0E0B0E016C040E06ADF8111EBCFBDCF0B
:102EA000E894C7F8DD24EE24FF24F601EE0FFF1F9F
:102EB000EE0FFF1FEA5FFB4F80819181A281B381FA
:102EC000BF7088839983AA83BB8381E0DF91CF9110
:102ED0001F910F91FF90EF90DF90CF90BF90AF9038
:102EE0009F908F9008954F925F926F927F928F92F2
:102EF0009F92AF92BF92CF92DF92EF92FF920F9389
:102F00001F93CF93DF93EC016A017B012801390104
:102F1000423051056105710508F473C049855A8531
:102F20006B857C854F5F5F4F6F4F7F4F4C155D0505
:102F30006E057F0508F465C08B889C88AD88BE88C7
:102F40008F89803129F477276F2D5E2D4D2D09C093
:102F5000B701A601E7E07695679557954795EA95FD
:102F6000D1F7840E951EA61EB71E40910701509101
:102F700008016091090170910A0184169506A60660
:102F8000B70671F48F89803191F4DD24EE24FF249B
:102F9000F601EE0FFF1FEA5FFB4F5182408217C020
:102FA00040E0C501B401E3DE8111ECCF2AC0E89412
:102FB000C7F8DD24EE24FF24F601EE0FFF1FEE0F0D
:102FC000FF1FEA5FFB4F40825182628273828091D1
:102FD00003048160809303048A89823080F08D81AC
:102FE0009E81AF81B885880D991DAA1DBB1D809358
:102FF000FF0390930004A0930104B093020481E0C6
:1030000001C080E0DF91CF911F910F91FF90EF9071
:10301000DF90CF90BF90AF909F908F907F906F90F8
:103020005F904F9008952F923F924F925F926F92D0
:103030007F929F92AF92BF92CF92DF92EF92FF92D8
:103040000F931F93CF93DF93CDB7DEB760970FB683
:10305000F894DEBF0FBECDBF5C014D875E876F87E2
:10306000788B1901D9014D905D906D907C90411441
:1030700051046104710431F0BFEF4B1A5B0A6B0A13
:103080007B0A10C0FC0140805180628073809924CB
:1030900093940D851E852F853889013011052105F2
:1030A000310509F0912CD50119962D913D914D9145
:1030B0005C911C972F5F3F4F4F4F5F4F29873A8797
:1030C0004B875C87730162011D821E821F821886F6
:1030D000F50181859285A385B4850D811E812F819F
:1030E0003885081719072A073B0708F054C02985B7
:1030F0003A854B855C852C153D054E055F0550F4E2
:10310000A2E0CA2ED12CE12CF12CB2E04B2E512C96
:10311000612C712C9E012F5F3F4FB701A601C501A5
:103120005FDE8823C1F149815A816B817C81D7019F
:10313000C6010196A11DB11D452B462B472B19F049
:103140002C013D010FC0AC01BD01441955096609B0
:1031500077090D851E852F8538894017510762072D
:10316000730779F02D813E814F8158852F5F3F4F46
:103170004F4F5F4F2D833E834F8358876C017D01F6
:10318000A7CF0FEF1FEF2FEF3FE0B701A601C5015B
:10319000AADE811117C080E03FC0D701C6010197A8
:1031A000A109B1098D839E83AF83B88797018601FA
:1031B000AC01BD01C50197DE882369F3CD80DE80B7
:1031C000EF80F8844C145D046E047F0430F3D10169
:1031D0004D915D916D917C91411551056105710590
:1031E00099F4F1014082518262827382992099F0B0
:1031F000FFEF4F1A5F0A6F0A7F0AD5014D925D9269
:103200006D927C92139707C093018201C5016BDE1A
:103210008111E7CFC0CF81E060960FB6F894DEBF92
:103220000FBECDBFDF91CF911F910F91FF90EF9017
:10323000DF90CF90BF90AF909F907F906F905F9006
:103240004F903F902F9008959FB7F8942091B50329
:103250008091B303213019F48DBB9FBF08958FBFB8
:1032600008958FEF0C94820861E0FC0184810E9434
:10327000000880910606882331F01092060680919E
:10328000B5038111E1CF0895CF93DF93EC018091D5
:103290000606811109C081E0809306068091070629
:1032A000909108060E94680860E08C81DF91CF91C0
:1032B0000C940008CF93DF93EC018E81882379F082
:1032C0008F8198859C012F5F3F4F38872F838230F5
:1032D000924010F4C6DFF4CFCE01C6DF1E82DF912C
:1032E000CF9108950F931F93CF93DF93EB010E942B
:1032F000F2068B01B6DF8F3F49F00E94F206601B99
:10330000710B6C177D07B0F380E001C081E0DF91A5
:10331000CF911F910F910895CF92DF92FF920F935B
:103320001F93CF93DF9300D000D0CDB7DEB76C01F1
:10333000F62E29833A834B835C83BCDFC601A4DF6E
:103340006CE271E0C601CEDF8F2D80640E9482089E
:1033500008E110E05C814B813A812981DA01C901E1
:10336000002E04C0B695A795979587950A94D2F735
:1033700029833A834B835C830E9482080850110999
:1033800029813A814B815C81083F8FEF180731F723
:10339000FF2029F0E8E0FE1621F08FEF03C085E959
:1033A00001C087E80E94820810E05BDFF601828797
:1033B00087FF04C01F3F11F01F5FF7CF0F900F90E2
:1033C0000F900F90DF91CF911F910F91FF90DF90A1
:1033D000CF9008950F931F93CF93DF93EC010E943A
:1033E000F2068B013EDF8A878F3F49F40E94F20686
:1033F000601B710B6D327140A8F38FE003C08E3FEC
:1034000031F08DE08D83CE012FDF80E001C081E0BF
:10341000DF91CF911F910F910895CF92DF92EF929C
:10342000FF920F931F93CF93DF93EC016901011576
:10343000110509F45DC0C801820F931F81309240CD
:1034400008F058C08E81882371F088819981AA8103
:10345000BB81481759076A077B0729F48F81988534
:10346000C816D90600F5488359836A837B838B8508
:10347000833039F039E0440F551F661F771F3A95A6
:10348000D1F79A01AB0161E1CE0146DF882319F043
:1034900083E08D832FC0CE019DDF882359F11886EC
:1034A0001F8281E08E838F8198858C159D0538F46D
:1034B000D8DE8F819885019698878F83F4CF670136
:1034C000E00EF11ECE14DF0429F0CBDEF60181936D
:1034D0006F01F8CF8F819885800F911F98878F8318
:1034E0002985222319F08115924010F0CE01E2DEE9
:1034F00081E003C0CE01B8DE80E0DF91CF911F9163
:103500000F91FF90EF90DF90CF900895EF92FF9290
:103510000F931F93790100E012E020E030E07DDF9F
:103520001F910F91FF90EF900895CF92DF92EF924D
:10353000FF920F931F93CF93DF9300D0CDB7DEB7E9
:103540008C01862F49835A830E9482084981C42EA8
:103550005A81D52EE12CF12CF60181916F010E9448
:103560008208FFEFEF1AFF0AE11482E0F806A1F7E4
:103570008FEF0E9482088FEF0E94820872DEF801AE
:1035800082878F71853031F081E18583C8016CDEDF
:1035900080E001C081E00F900F90DF91CF911F91EB
:1035A0000F91FF90EF90DF90CF9008950F931F93AE
:1035B000CF93DF93EC018901411551056105710538
:1035C00011F482E12DC08B85833039F089E0440FFE
:1035D000551F661F771F8A95D1F79A01AB0168E1E5
:1035E000CE019ADE882311F084E01AC0A8016EEFA4
:1035F000CE019BDF8823A9F068E572E0CE0172DE80
:10360000811102C085E10CC020E030E0A9016DE02D
:10361000CE0182DE811103C024DE882331F084E1F3
:103620008D83CE0121DE80E003C0CE011DDE81E06E
:10363000DF91CF911F910F91089580E58093070648
:10364000109208060895DB018F939F9362D0BF917B
:10365000AF91A29F800D911DA39F900DB29F900DE1
:103660001124089597FB072E16F4009406D077FDD9
:1036700008D05FD007FC05D03EF4909581959F4F10
:103680000895709561957F4F0895A1E21A2EAA1BA7
:10369000BB1BFD010DC0AA1FBB1FEE1FFF1FA21702
:1036A000B307E407F50720F0A21BB30BE40BF50BFF
:1036B000661F771F881F991F1A9469F76095709588
:1036C000809590959B01AC01BD01CF010895052E19
:1036D00097FB16F400940FD057FD05D0D6DF07FCFA
:1036E00002D046F408C050954095309521953F4F43
:1036F0004F4F5F4F089590958095709561957F4FDE
:103700008F4F9F4F0895EE0FFF1F0590F491E02D0E
:10371000099423D0A59F900DB49F900DA49F800D78
:10372000911D11240895B7FFF4CFF3DF821B930B93
:103730000895AA1BBB1B51E107C0AA1FBB1FA617F8
:10374000B70710F0A61BB70B881F991F5A95A9F74A
:1037500080959095BC01CD010895A29FB001B39FC3
:10376000C001A39F700D811D1124911DB29F700D8A
:10377000811D1124911D08955058BB27AA270ED0F2
:103780004DC13ED130F043D120F031F49F3F11F4D0
:103790001EF433C10EF4E095E7FB29C1E92F4FD1A8
:1037A00080F3BA17620773078407950718F071F45E
:1037B0009EF567C10EF4E0950B2EBA2FA02D0B01DC
:1037C000B90190010C01CA01A0011124FF27591B66
:1037D00099F0593F50F4503E68F11A16F040A22F6C
:1037E000232F342F4427585FF3CF469537952795DD
:1037F000A795F0405395C9F77EF41F16BA0B620BDC
:10380000730B840BBAF09150A1F0FF0FBB1F661F22
:10381000771F881FC2F70EC0BA0F621F731F841F65
:1038200048F4879577956795B795F7959E3F08F08B
:10383000B3CF9395880F08F09927EE0F979587954A
:1038400008950CD0EBC0E3D040F0DAD030F021F492
:103850005F3F19F0CCC0511115C1CFC0F0D098F323
:103860009923C9F35523B1F3951B550BBB27AA2701
:1038700062177307840738F09F5F5F4F220F331F73
:10388000441FAA1FA9F333D00E2E3AF0E0E830D03F
:1038900091505040E695001CCAF729D0FE2F27D042
:1038A000660F771F881FBB1F261737074807AB0710
:1038B000B0E809F0BB0B802DBF01FF2793585F4F85
:1038C0002AF09E3F510568F092C0DCC05F3FECF3E8
:1038D000983EDCF3869577956795B795F7959F5F4A
:1038E000C9F7880F911D9695879597F90895E1E09E
:1038F000660F771F881FBB1F621773078407BA07FD
:1039000020F0621B730B840BBA0BEE1F88F7E09557
:10391000089504D06894B111B5C0089598D088F086
:103920009F5790F0B92F9927B751A0F0D1F0660FAB
:10393000771F881F991F1AF0BA95C9F712C0B130C6
:1039400081F09FD0B1E008959CC0672F782F882721
:10395000B85F39F0B93FCCF3869577956795B39505
:10396000D9F73EF490958095709561957F4F8F4F74
:103970009F4F0895E89409C097FB3EF49095809579
:10398000709561957F4F8F4F9F4F9923A9F0F92F25
:1039900096E9BB279395F695879577956795B795A3
:1039A000F111F8CFFAF4BB0F11F460FF1BC06F5F89
:1039B0007F4F8F4F9F4F16C0882311F096E911C09B
:1039C000772321F09EE8872F762F05C0662371F0BC
:1039D00096E8862F70E060E02AF09A95660F771FD0
:1039E000881FDAF7880F9695879597F9089597F9C4
:1039F0009F6780E870E060E008959FEF80EC089595
:103A000000240A94161617061806090608950024BD
:103A10000A9412161306140605060895092E039437
:103A2000000C11F4882352F0BB0F40F4BF2B11F4AB
:103A300060FF04C06F5F7F4F8F4F9F4F089557FD0A
:103A40009058440F551F59F05F3F71F04795880F0C
:103A500097FB991F61F09F3F79F0879508951216A3
:103A600013061406551FF2CF4695F1DF08C016164F
:103A700017061806991FF1CF869571056105089400
:103A80000895E894BB2766277727CB0197F9089517
:103A90000BD0C4CFB5DF28F0BADF18F0952309F0BA
:103AA000A6CFABCF1124EECFCADFA0F3959FD1F301
:103AB000950F50E0551F629FF001729FBB27F00DDC
:103AC000B11D639FAA27F00DB11DAA1F649F662731
:103AD000B00DA11D661F829F2227B00DA11D621F80
:103AE000739FB00DA11D621F839FA00D611D221F3A
:103AF000749F3327A00D611D231F849F600D211D1E
:103B0000822F762F6A2F11249F5750408AF0E1F0C0
:103B100088234AF0EE0FFF1FBB1F661F771F881F09
:103B200091505040A9F79E3F510570F060CFAACF49
:103B30005F3FECF3983EDCF3869577956795B795F4
:103B4000F795E7959F5FC1F7FE2B880F911D96951E
:103B5000879597F908951F93FC0199278827BC0141
:103B6000E89411911032E9F3193010F01E30C8F3C7
:103B70001B3249F01D3241F4689405C031D0610F09
:103B8000711D811D911D119110531A30B8F33EF42F
:103B900090958095709561957F4F8F4F9F4F1F91A6
:103BA0000895FB01DC018D91019080190110D9F37A
:103BB000990B0895FB01DC0101900D920020E1F7C3
:103BC0000895FB01DC014150504048F001900D92F6
:103BD0000020C9F701C01D9241505040E0F7089500
:103BE000592F482F372F262F660F771F881F991FB1
:103BF000660F771F881F991F620F731F841F951F01
:103C0000660F771F881F991F089511E0CEE1D1E05C
:103C100003C0FE017ADD2296C032D107D1F7F894B5
:023C2000FFCFD4
:103C2200000009062000FFFFFFFFFF475053204519
:103C320072726F7200475053204F4B00B801B801A7
:103C4200B8010000060126014A0100000000000040
:103C5200E70150036B0184017601C6010D0A006E73
:103C6200616E00696E66006F766600666C757368D9
:103C7200696E672E2E2E002000666C75736865646F
:103C82002E005772697465206572726F7220283037
:103C9200783535206578706563746564293A005714
:103CA20072697465206572726F72202830784141A2
:103CB200206578706563746564293A00000000002D
:103CC2004B0A5003300A670A710AE6080000000036
:103CD200410B5003AE0B200B940B930B4750524DEC
:103CE20043004750474741004E004E4E4500454E67
:103CF2004500455345005353450053005353570065
:103D020057535700574E57004E4E570000000000C1
:0C3D1200E111F71193122E12371211125A
:00000001FF
